S02F0000626F6F746C6F616465722D73746F726167652D696E7465726E616C2D626C652D636F6D62696E65642E73333720
S31500000000002000207D050000C9050000C90500008C
S31500000010C9050000C9050000C9050000C9050000A2
S31500000020C9050000C9050000E4050000C905000077
S31500000030C9050000C9050000C9050000C905000082
S315000000400348044B834202D0034B03B11847704761
S315000000501401002014010020000000000548064B92
S315000000601B1AD90F01EBA301491002D0034B03B1B0
S3150000007018477047140100201401002000000000FA
S3150000008010B5064C237843B9FFF7DAFF044B13B1DA
S315000000900448AFF300800123237010BD1401002033
S315000000A000000000F805000008B5054B1BB1054926
S315000000B00548AFF30080BDE80840FFF7CFBF00BF9B
S315000000C00000000018010020F80500000D4B0E4A44
S315000000D09A60D3F8882042F47002C3F888200B4B4C
S315000000E05A6D42F400525A651A6C22F003021A64E1
S315000000F05A6F22F001025A671A6E22F080521A666F
S31500000100704700BF00ED00E00000000000300E4028
S31500000110094A0A4BD969C90705D512B96FF0020019
S315000001207047013AF6E7002AF8D001221861DA6032
S31500000130D86940F3800070478096980000000E4012
S3150000014070B509B9002070BD0E4A0023082550F885
S31500000150234094610C4CD5600133D669F60705D56A
S3150000016014B96FF00200EEE7013CF6E7002CF8D078
S31500000170D469A40702D49942E9D1E3E76FF00100FC
S31500000180E1E700BF00000E4080969800224B2DE963
S31500000190F0470D4641F671311E6C1964996841F0BD
S315000001A001018146B6B299609708A8464FF0000A49
S315000001B0BA450ED30020D9F800202B689A420ED0FB
S315000001C04846FFF7A5FF50B901212846FFF7B8FFBB
S315000001D005E009EB8A042046FFF79AFF48B10E4B6B
S315000001E09A6822F001029A600EB100221A64BDE8F4
S315000001F0F087C4F30A01C1F500618908A7EB0A0379
S31500000200994228BF19464046FFF79AFF0028D2D1E7
S315000002108A4408EB8108CBE700000E40214B41F6EB
S3150000022071311A6C1964996841F0010199600121D4
S315000002301861D960D969490792B209D5996821F040
S31500000240010199600AB100221A644FF0FF3070472D
S315000002500221D9601449D869C00700D569B9D8699F
S3150000026010F002000BD0996821F0010199600AB1E3
S3150000027000221A646FF0010070470139EBE741B9BB
S31500000280986820F00100986002B119646FF00200CE
S315000002907047996821F0010199600AB900207047FA
S315000002A01864FBE700000E4080969800FFF76EBFCB
S315000002B008B5074B1A68074B1A6000F073F8002858
S315000002C0FBD040F2022000F0B9F8002008BD00BFC4
S315000002D0040100200801002010B5104C0023A36083
S315000002E000F0CAF80E4B5B68B3F5803F09D040F2C8
S315000002F00923984202D0B0F5007F02D100F012F82F
S3150000030058B94FF40063A3601846016881F3088862
S3150000031081F3098840688746FEE710BD00ED00E0DE
S3150000032000500E402DE9F0414FF00008D8F8282083
S315000003301069D568836AAB4202D20020BDE8F0811D
S3150000034005F560529A42F8D95B1BC618C758134B7D
S315000003509F42F2D1F1684FF0FF3200F0F5F8104BF2
S3150000036098420446E9D1D8F82838A3F50062B2F5D8
S31500000370605F10D21A68BA420DD1B1689A6891428C
S3150000038009D8D9684FF0FF32284600F0DDF8001B87
S3150000039018BF0120D2E70120D0E700BF07B0CD5E2D
S315000003A0E320BBDEF8B500239B6AD3E90347BB6AAB
S315000003B01B1BFD182646EA68A318B3421BD839460C
S315000003C0204600F08CF8A8B10020D0F82838A3F514
S315000003D00062B2F5605F0DD219680A4A914209D1EE
S315000003E0D9684FF0FF32204600F0AEF8064BC31A2C
S315000003F058425841F8BD304600F06AF806F50066E6
S31500000400D9E700BF07B0CD5EE320BBDE4FF0005357
S315000004104AF6C0305B8823F00F039BB21B1A584282
S31500000420584170474FF0005208B51080FFF7EEFFB5
S3150000043010B94FF20F03538008BD000008B5FFF74F
S31500000440F1FF0A4A136823F4E06343F40073136070
S31500000450BFF34F8F0649074BCA6802F4E0621343A5
S31500000460CB60BFF34F8F00BFFDE700BF00500E40CB
S3150000047000ED00E00400FA054FF000534FF20F01C3
S315000004805A888A4201D1188870473AB91B88012BCD
S3150000049040F2022018BF4FF4007070474FF400700E
S315000004A0704707B503469B0753BF6FEA01414FF6F6
S315000004B0FF7343EA01416FEA11410422019120F0E2
S315000004C003000DEB0201FFF7F1FE03B05DF804FB3C
S315000004D008B5FFF7A3FEB0FA80F0400908BDF8B5ED
S315000004E005460E4614460AB90120F8BD42EA000345
S315000004F0DA0701D50020F8E7830721D50988FFF739
S31500000500D0FF0028F6D1023C032C05F1020506F1C6
S3150000051002060BD924F003073A4631462846FFF770
S31500000520C5FE0028E6D13E443D44E41B002CDBD04A
S3150000053031882846FFF7B5FFB0FA80F04009D4E7C6
S31500000540032CE7D8F4E7000010B50A4CD4F8B03015
S3150000055043F02003C4F8B030074B01241C6001446B
S315000005609A605C60884201D1D86910BD10F8012BF1
S315000005709A61F7E700400E4000C001400B488047F3
S315000005800B4880470B490C4A0C4B9A42BEBF51F8A8
S31500000590040B42F8040BF8E709490A4A0020914285
S315000005A0BCBF41F8040BFAE7FFF782FECD0000005E
S315000005B0D9020000FC0500000401002014010020FF
S315000005C01401002030010020FEE700BFF8B500BF8F
S315000005D0F8BC08BC9E467047F8B500BFF8BC08BC1E
S315000005E09E467047AD1007B00100000000000C01E8
S315000005F0000800000080000000000000C0EA2101A1
S31100000600C0EA2101A900000081000000F2
S31500000800081000205327000051270000FF27000092
S3150000081051270000512700005127000051270000F2
S315000008205127000051270000A43400005127000082
S3150000083051270000543400005127000051270000C2
S3150000084051270000512700005127000051270000C2
S3150000085051270000512700005127000051270000B2
S3150000086051270000512700005127000051270000A2
S315000008705127000051270000512700005127000092
S315000008805127000051270000512700005127000082
S315000008905127000051270000512700005127000072
S315000008A05127000051270000512700005127000062
S315000008B05127000051270000512700005127000052
S315000008C051270000512700000348044B834202D001
S315000008D0034B03B11847704710100020101000207A
S315000008E0000000000548064B1B1AD90F01EBA301B7
S315000008F0491002D0034B03B118477047101000206F
S31500000900101000200000000010B5064C237843B9F3
S31500000910FFF7DAFF044B13B10448AFF3008001235D
S31500000920237010BD2810002000000000C43600000F
S3150000093008B5054B1BB105490548AFF30080BDE876
S315000009400840FFF7CFBF00BF0000000010100020D6
S31500000950C4360000064B0748DA1C121AC11E22F0E4
S315000009600302994288BF0022034902F03BBD00BF43
S315000009701010002008100020D0360000064B074853
S31500000980DA1C121AC11E22F00302994288BF002205
S31500000990002102F01FBD00BF2C1000201010002007
S315000009A00D4B0E4A9A60D3F8882042F47002C3F8C1
S315000009B088200B4B5A6D42F400525A651A6C22F08D
S315000009C003021A645A6F22F001025A671A6E22F065
S315000009D080521A66704700BF00ED00E00008000074
S315000009E000300E40002337B59B6A14461A68134B35
S315000009F09A420D4620D100F5004310F5004F0193B1
S31500000A001AD2019BB3F5802F16D2019BC3F5802322
S31500000A10A34211D340B9D0F828385A69B2F5004F2D
S31500000A2002D9186901F08CFF01982246294603B0C5
S31500000A30BDE8304001F098BE03B030BDAD1007B040
S31500000A40F0B5421ED11C85B0034618D80D4C6E4633
S31500000A5004F1100720686168354603C50834BC42B6
S31500000A602E46F7D104A90F3311F8014D12F8010FE4
S31500000A70844204D19A42F7D1012005B0F0BD00208E
S31500000A80FBE700BF40340000F0B5036803F16043A4
S31500000A90B3F5F84F04469FB04FF000002AD8D0F8BF
S31500000AA02828636816699E4224D8B3F5802F21D87A
S31500000AB0656B06F14003AB4250D8B5F5802F4DD893
S31500000AC02846FFF7BDFF002848D0284601F07FFEE4
S31500000AD080B16F6977B1022F0ED1AB69C4F1040101
S31500000AE019444FF0FF32204600F0B8FC1C4BC31AE5
S31500000AF0584258411FB0F0BD40F2046328460393A4
S31500000B00FFF79EFF0028F5D0012F25D1AD69AE4233
S31500000B1022D8AC4220D8B5F5802F1DD804A802F003
S31500000B20DDF82A1B214604A802F0E2F804A802F028
S31500000B30E1F800F0EDFC044600F0EEFC23460090E0
S31500000B4005F12002294604A800F0A2FC03900398B0
S31500000B50B0FA80F04009CDE70020CBE70120C9E7D5
S31500000B60E320BBDE08B54FF0FF3200F077FC044B04
S31500000B70984203D140F2092000F020F9002008BD78
S31500000B80E320BBDE384B13B501225A6401F0C0FDE9
S31500000B90044601A801F09EFD8E2C1CD83349D1F8DD
S31500000BA0B00040F00403C1F8B030314B4FF05012A2
S31500000BB01A601A631A66C3F89020C3F8C020C3F8F7
S31500000BC0F020C1F8B000294AD36A23F07F0343F02E
S31500000BD02003D36201E08F2CF5D09DF80530012B60
S31500000BE001BF244AD2F8643143F00403C2F86431E9
S31500000BF0214B0022C3F8B42A01F0F3FD00F0A6F859
S31500000C0008B900F08BF802F026F9044658B900F04E
S31500000C109DF808B100F092F840F2012000F0CEF8FD
S31500000C204FF4017018E000F091F808B900F07EF872
S31500000C3000F0A6F8012802D900F070F8FEE700F0EF
S31500000C40ABF80E4B0193019B002B0ADC40F20543E7
S31500000C509C42E5D140F2032000F0B0F8002002B03B
S31500000C6010BD019B013BEDE700000E4000400E4029
S31500000C7000A0004000300E400000C64300350C00C6
S31500000C8007B501238DF806308DF80730214B5B68D8
S31500000C905A050FD500F0B0F8A0F2022080B207285E
S31500000CA008D8C923C340DB0742BF00238DF80630AE
S31500000CB08DF807304FF480435B68013308D14FF459
S31500000CC0027000F051F800238DF806308DF80730D9
S31500000CD09DF8073063B14FF48040FFF7D5FE8DF8DD
S31500000CE006009DF806301BB94FF4027000F03CF880
S31500000CF09DF8063053B100F029F808B100F01EF84F
S31500000D00054B4FF48040986001F06FFD03B05DF82D
S31500000D1004FB00BF00500E4000ED00E0024B4CF219
S31500000D203C325A80704700BF00000020024B4AF652
S31500000D30C0325A80704700BF00000020024B4FF2BD
S31500000D400F025A80704700BF00000020054B5B88E9
S31500000D5023F00F034AF6C0309BB21B1A5842584183
S31500000D60704700BF00000020044A08B51080FFF756
S31500000D70EDFF10B94FF20F03538008BD00000020AD
S31500000D8008B5FFF7E3FF18B1024B588800F00F00D3
S31500000D9008BD00BF0000002008B5FFF7D7FF48B127
S31500000DA0054A538803F00F010F2914BF013323F0BE
S31500000DB00F03538008BD00BF0000002008B5FFF7F1
S31500000DC0D3FF0A4A136823F4E06343F40073136005
S31500000DD0BFF34F8F0649074BCA6802F4E06213431C
S31500000DE0CB60BFF34F8F00BFFDE700BF00500E4042
S31500000DF000ED00E00400FA05094B5A884FF20F0196
S31500000E008A4201D1188870473AB91B88012B40F2F3
S31500000E10022018BF4FF4007070474FF400707047FF
S31500000E2000000020074930B5024600230C2505FBCB
S31500000E3003F460180C59944203D001330A2BF6D1FF
S31500000E40002030BDEC340000F0B587B00023082741
S31500000E50CDE9013315463B46009704AA044601F046
S31500000E600EFE41F203039842064623D194F843301E
S31500000E7053B1E06C3A4604A901F03AFF04AAA06C0B
S31500000E803B46114601F019FF059A6A6094F8432023
S31500000E90049B2B6052B9094A934207D0084A9342F1
S31500000EA004D0E06C082204A901F022FF6B682365D8
S31500000EB000236365304607B0F0BD00BFF70A0AF7A6
S31500000EC0FC0404FC2DE9F04FA7B0CDE913239846A6
S31500000ED0309F002304460E4615934FF00109159ADC
S31500000EE0424501D30020C4E094F84630102BF7D8D1
S31500000EF0DFE813F05A00A700A100420029000F0105
S31500000F00880129008001290080013A02AF02110000
S31500000F1005010402AD020025636D0F2B00F28F80E0
S31500000F201023009316AA4023CDE9019513A9204664
S31500000F3001F0A5FD0B900B9A41F203039A4200F0D3
S31500000F40D0800B9B3CE04FF0010AD4E914539D423C
S31500000F5075D9ED1ADDE914329B1A94F84020032D59
S31500000F60134440F25981032B00F26D8113A92046E8
S31500000F7001F064FD002323E0A44D636D072B00F20E
S31500000F80D5800823009316AA4023CDE9019913A919
S31500000F90204601F074FD0D900D9A41F203039A422A
S31500000FA000F0EE800D9B0BE016AA13A92046FFF772
S31500000FB04BFF0890089B41F20302934207D0089B1F
S31500000FC00793079A41F203039A4288D050E0179A92
S31500000FD022650022169962658D4A914240F0E280B0
S31500000FE0022284F84620EBE70823009316AA402342
S31500000FF0CDE9019513A9204601F041FD0990099A12
S3150000100041F203039A4201D0099BD9E7169B03F0EC
S315000010107F43B3F1407F05D0102384F8463041F278
S315000010200903CDE7179BD90706D594F8423043F05C
S31500001030010384F842300025636D072BD4D90123C0
S31500001040DDE016AA13A92046FFF7FEFE0A900A9DC8
S3150000105041F203039D420FD00A9D0795079A41F27C
S3150000106003039A423FF43BAF079B0BB10023F37097
S31500001070079827B0BDE8F08F1698FFF7D3FE28B97A
S31500001080102384F8463041F20805E6E7437994F8E0
S3150000109090209A4205D9102384F8463041F20E0575
S315000010A0DBE702685B498A4205D00289D20748BF5E
S315000010B0013384F8903094F84230D9070DD502896F
S315000010C094F84330920706D53BB1102384F8463096
S315000010D041F20105C1E7002BF7D0037984F84630C9
S315000010E0BBE7D4F848A000F01BFA8023CDE9000343
S315000010F017AA01230221504601F0BFFD0CE7226D1D
S31500001100A2650123002284F84330E26584F8463064
S31500001110E5E600213C2217A8169102F05BF90125AD
S31500001120D4E91432934204D884F8465041F20303BA
S3150000113046E7009316AA4023CDE9015513A9204698
S3150000114001F09DFC0C900C9A41F203039A4201D0E7
S315000011500C9B35E70DF1580C06F108030DF1700EE6
S31500001160624603CA724518605960944603F1080343
S31500001170F6D110681860337843F001033370CFE777
S315000011803378179943F002033370169B7360236D0F
S315000011900022083B7362936A1868A84205D1DB688F
S315000011A08B4205D0102384F8463041F2010307E74D
S315000011B0042384F8463094F84530626643F0010310
S315000011C084F84530D9E60423009316AA4023CDE9D6
S315000011D0015513A9204601F052FC0E900E9A41F2D9
S315000011E003039A4201D00E9BEAE6226D169B042A5F
S315000011F001D923660125636D032BE4D9092384F8FD
S31500001200463093E70023636607237FE7AD1007B0F8
S31500001210EB17A603F90707F99D423FF6A7AE9D42D5
S3150000122028BF1D46402316AACDE901AA009513A999
S31500001230204601F024FC0F900F9A41F203039A42D4
S315000012400AD00F9BBCE6402D28BF40259D4228BFF3
S315000012501D4625F00305E5E794F84630072B1CD01C
S31500001260042DC5F1040B059388BF4FF0000B16AB98
S315000012705A465819FF2102F0ADF8059B092BAB44DD
S3150000128019D13B465A4616A9204601F079FC0F9023
S315000012900F9B002B3FF459AED3E7D7F808B0BBF14C
S315000012A0000FDDD03B68606E2A4616A9D847636EEC
S315000012B02B44636649E6042B7FF447AE737899079F
S315000012C07FF543AEFB68002B3FF43FAE626E042A07
S315000012D00BD80BEB0203062B07D917AB9B1A1A6820
S315000012E0C4F884204FF0FF321A603B68FD68606ED8
S315000012F05A4616A9A847636E5B44DAE794F8445049
S31500001300002D7FF49CAE4023009316AACDE901552B
S3150000131013A9204601F0B3FB1090109A41F2030383
S315000013209A4201D0109B4BE6E06C01F0E3FCD4F846
S315000013304CA000F0EDF8834600F0EEF85B46009016
S315000013401EAA16A9504600F0A3F81090109B33B1C0
S315000013501023F57084F8463041F2060330E6012387
S31500001360F37084F844306AE600234FF00408CDE9B0
S31500001370013316AA4023CDF8008013A9204601F0B8
S315000013807EFB1190119A41F203039A4202D0119BFF
S3150000139007936DE6D4F888202F4B9A4205D0102388
S315000013A084F8463041F20503F2E70123F37094F81E
S315000013B04530DA0707D5FD682DB13B68424604F192
S315000013C084014046A84794F845309B0707D5FD6839
S315000013D02DB104223B6804F184011046A847236E10
S315000013E073B37D6865B304F180084FF0FF330422C0
S315000013F0414612A8129301F0DDFF28B13B68042292
S31500001400414648F20400A84704F168090422494607
S3150000141012A801F0CFFF98B100231422D3F8283880
S31500001420D3F8108004F16C01D7E9003508F1080003
S31500001430A8470422D7E90035494608EB0200A84729
S315000014400123B3700C2384F846300023A0E7002361
S31500001450F37041F207000CE6E320BBDE10B50A4C40
S31500001460D4F8B03043F02003C4F8B030074B012461
S315000014701C6001449A605C60884201D1D86910BD45
S3150000148010F8012B9A61F7E700400E4000C00140BA
S315000014902DE9F041A2B00E46DDF8A08015461F46A4
S315000014A0044670B369B362B35BB3B8F1000F28D0DA
S315000014B01548012100F084FF4022002102A801F016
S315000014C089FF394602A801F027FC12AF41460AA857
S315000014D001F022FC40220021384601F07BFF314614
S315000014E0384601F019FC29461AA801F015FC0748F0
S315000014F0009702AB2022214600F0BAFA22B0BDE8DE
S31500001500F08140F20160F9E700150A0000000F4083
S31500001510004870474A43E00F004870476A43E00FAF
S31500001520004870478642E00F2DE9F04104461D460B
S315000015300F46904600211C22181D01F04BFF012387
S315000015402B6001F063FD4146064604F5807001F00C
S31500001550CAFD394604F5827004F5847701F0C3FDAF
S315000015602946384601F0BFFD304601F053FD0D4EC9
S315000015700D4B0E4A0E490F4823656369DB010BD5F7
S3150000158001F044FD29460446384601F0B4FD2046E4
S31500001590BDE8F04101F03EBD22656165A065E665E6
S315000015A0EBE700BF3938010039398401D02484FCC7
S315000015B01C82FED88B1C81A02DE9F04F8DB004460D
S315000015C017460D461E4601F021FD04F5827805F109
S315000015D0400B81465946404601F085FD04F5867369
S315000015E0184604F5887A3946039301F07CFD07F125
S315000015F02001504601F077FD484601F00BFD414AB7
S315000016002265414A62650127404AA265E76501F005
S31500001610FDFC29460190404601F065FD04F58479FC
S3150000162005F1200211464846029201F05CFD59463A
S31500001630504601F058FD019801F0ECFC3449216553
S3150000164034496165A76501F0E1FC04F5807B8246BB
S3150000165006F14001584601F04EFD04A9484601F046
S315000016604AFD504601F0D6FC01F0D0FC039B29460A
S315000016708246184601F037FD504601F0CBFC264B5A
S315000016802365264B63656FF42672A3F5FE23134488
S31500001690A365E76501F0BAFC029A05461146404685
S315000016A001F021FD284601F0B5FC1D4B23651D4BBD
S315000016B06365A76501F0AAFC31460546484601F078
S315000016C01AFD284601F0A6FC01F0A0FC04A9054677
S315000016D0404601F008FD284601F09CFC124B2365AC
S315000016E0124B6365A76501F091FC06F120010446E3
S315000016F0584601F000FD204601F08CFC0DB0BDE817
S31500001700F08F00BF8AD11C81D91C83D11C81E11CBA
S31500001710D01482CB1481E11C8CE11C811C84D91C61
S31500001720E014D8141482E11C84D31482D11CE01472
S315000017302DE9F041044690B00F46244E052190460F
S3150000174001F046FD00232360236363630FCE08ADDB
S315000017500FC596E80F0085E80F0008AA6B4607F14B
S3150000176040012046FFF7E0FE01F050FC04F58676C6
S315000017700546694604F5827001F0B5FC39463046E7
S3150000178001F0B1FC07F1200104F5887001F0ABFC13
S31500001790284601F03FFC0E4B23650E4B63650E4B4E
S315000017A0A3650123E36501F031FC08F1200105463C
S315000017B004F5807001F09FFC4146304601F09BFC29
S315000017C0284601F027FC10B0BDE8F0817035000016
S315000017D08AD11C81D91C83D11C81E11C2DE9F04FD3
S315000017E0A5B01D460446CDE9021205A81C2200211B
S315000017F001F0F0FD4FF0010820220021284605F1F6
S315000018002007CDF8108001F0E5FD202200213846A2
S3150000181001F0E0FD05F14003184620220021009367
S3150000182001F0D8FD0521204601F0D2FC00232360FB
S3150000183023636363039BDB69002B4FF0FF060BDB1F
S31500001840013E09D00399721106F01F0351F82220B8
S3150000185008FA03F31342F3D001F0D8FB04F58273C0
S31500001860394680461846019301F03DFC404601F09A
S31500001870D1FB734B2365734B6365734BA36501F013
S31500001880C5FB04F5807914A98046484601F033FC6F
S31500001890404601F0BFFB01F0B9FB294680464846A9
S315000018A001F021FC404601F0B5FB684B2365684B0F
S315000018B063654FF48673A36501F0A8FB04F586788B
S315000018C082460CA9404601F016FC1CA9484601F0C8
S315000018D012FC504601F09EFB01F098FB8246DDE9C2
S315000018E0001001F000FC504601F094FB594B2365B3
S315000018F00123636501F08AFB04F5847A2946834651
S31500001900504601F0F0FB584601F084FB524A22652E
S3150000191002F1D94202F5DE1202F595626265A2F580
S3150000192086120123A2F2BA42A265E36501F06EFBBC
S315000019301CA98346504601F0D6FB0CA9404601F08F
S31500001940D2FB584601F066FB444A2265444A62656A
S31500001950444AA26501F05AFB2946834604F588707D
S3150000196001F0C9FB584601F055FB01F04FFB394623
S315000019708346019801F0B7FB5046009901F0B3FB8E
S3150000198014A9404601F0AFFB584601F043FB364A26
S315000019902265364A626501F039FB0099824648465F
S315000019A001F0A9FB3946404601F0A5FB504601F07F
S315000019B031FB06F01F0101238B407211039951F888
S315000019C02220134211D0284601F097F938B1384643
S315000019D001F093F918B1009801F08FF958B9029AFD
S315000019E02B4629462046FFF7E7FD013EBFF434AFFC
S315000019F025B0BDE8F08F029BAC4603F1200E1868B7
S31500001A005968624603C2083373459446F7D1BC460B
S31500001A1003F1200E18685968624603C208337345FD
S31500001A209446F7D10DF1100EBEE80F0005F1400CFB
S31500001A30ACE80F009EE80F008CE80F00D5E700BF6A
S31500001A408AD11C81821CC00C0C0C0100C00C0C83BA
S31500001A50D91C83D88AD11C83DA0C81148CE11CD062
S31500001A601484E31482D11C01D81483D11CC00C0148
S31500001A702DE9F04FBBB00F460446002115460AA8D3
S31500001A806022449E9A4601F0A5FC6022002122A80D
S31500001A9001F0A0FC002F00F01981BAF1000F00F050
S31500001AA01581002E00F01281002D40F30F810023D6
S31500001AB0236023636363636843F0100363600C2150
S31500001AC0204601F085FB6368DFF820E223F44063DB
S31500001AD043F400636360636823F4407343F4007364
S31500001AE06360BEE80F000DF1A80CACE80F009EE89D
S31500001AF00F008CE80F0001F089FA04F5847983461B
S31500001B003146484604F5867801F0EDFA2AA94046A2
S31500001B1001F0E9FA584601F07DFA6E4A2265012382
S31500001B2063656369DA0104D440F202603BB0BDE844
S31500001B30F08F311F082351F8040F002800F0BE80F3
S31500001B4001F064FA06F1200B01905946484601F06F
S31500001B50CAFA2AA9404601F0C6FA019801F05AFAD3
S31500001B6001235C4A226563656369DB01DCD506F106
S31500001B701C02082352F8041F002900F0A38020222B
S31500001B80002132A801F026FC202DA8BF2025013D0A
S31500001B90013F25F0030303F594736B4405F003013D
S31500001BA017F8012FC9008A4053F8601C013D42EA2C
S31500001BB0010243F8602CECD201F028FA32A905465E
S31500001BC0484601F090FA284601F024FA424B236574
S31500001BD001F01CFA04F58077054632A9384601F073
S31500001BE08AFA284601F016FA2AAA02AB5946204676
S31500001BF0FFF79AFC01F00AFA04F5887B054602A96C
S31500001C0004F5827001F06FFA32A9584601F06BFABA
S31500001C103146404601F067FA284601F0FBF92F4BA2
S31500001C20236503F1FA43A3F50063636501F0EEF95A
S31500001C3032A90546584601F05EFA02A9384601F077
S31500001C405AFA284601F0E6F925490AAB32AA204697
S31500001C50FFF7C4FD22AB02AA51462046FFF7BEFDA0
S31500001C600AAA11462046FFF763FD22AB19460AAAC7
S31500001C702046FFF7A1FC22AA11462046FFF758FD91
S31500001C8001F0C4F90C210546204601F0A1FA22A96B
S31500001C90484601F028FA3146404601F024FA284623
S31500001CA001F0B8F90F4B23650F4B6365636913F0B9
S31500001CB0807F40F2046018BF002037E7013B7FF4C5
S31500001CC03AAF31E7013B7FF455AF2DE740F20160B3
S31500001CD02CE700BF3035DA1030D00C0130E11C841F
S31500001CE0B03500003035DA1439380100903500007F
S31500001CF02DE9F34714460D46DDE90A921F460028F2
S31500001D004DD14CB313683F2B2AD8516851B325499E
S31500001D10002F14BFB846884603F03F061B19136010
S31500001D2022BF536801335360FEB93F2C0ED9A30975
S31500001D3000932A463B464146002000F083F824F0F3
S31500001D403F031D4404F03F0434B1002622462946D1
S31500001D5009EB060001F046FB002002B0BDE8F08763
S31500001D60B846D9E7DFF83C80D6E7C6F1400A5445C5
S31500001D70ECD32946524609EB060001F033FB264414
S31500001D80012300934A463B4641460020A6F1400403
S31500001D9000F058F83F2C5544D6D9B846C7E7024854
S31500001DA0DBE700BF3036000080AFFFFF2DE9F041D2
S31500001DB0146886B01E46E3008DF80F3063098DF86F
S31500001DC00E30630B8DF80D30630D8DF80C305368B3
S31500001DD01746DA0002EB54728DF80B2004F03F042C
S31500001DE05A09372C8DF80A204FEA53324FEA5353DB
S31500001DF005468DF80920CDE9001794BFC4F13802D5
S31500001E00C4F1780288468DF808300D490346002053
S31500001E10FFF76EFF08222B46CDE900870DEB020186
S31500001E200020FFF765FF284605F1200350F8042B34
S31500001E3046F8042B9842F9D1002006B0BDE8F0819F
S31500001E40F03500002DE9F04F99B0054688469246D8
S31500001E501E4600F065FC0446002D7ED10423036077
S31500001E604560C5644368694623F440634360A8F14E
S31500001E700402056308F11C034563884652F8040F03
S31500001E8000BA9A4241F8040BF8D101F0BFF8414676
S31500001E90054604F5827001F026F9284601F0BAF8E5
S31500001EA02F4B23654FF000090AF00307229B994543
S31500001EB027D1B30704F5807744D001F0A7F841464F
S31500001EC00546384601F017F9284601F0A3F808AD93
S31500001ED03246434603CBAB4210605160984602F14E
S31500001EE00802F6D1204600F025FC331F1C3653F8B5
S31500001EF0042F12BAB3421A60F9D1002019B0BDE816
S31500001F00F08F0AEB89156FB10DF1200E05F1400B2C
S31500001F1028686968F446ACE8030008355D45E6467E
S31500001F20F6D108AD01F072F82946834604F5D27061
S31500001F3001F0E9F8584601F06DF80A4A226509F100
S31500001F400109B3E701F062F831460546384601F06B
S31500001F50D2F8284601F05EF8C4E76FF07100CDE7CD
S31500001F60888AC801070D81012DE9F041A2B05022EF
S31500001F7004460D460EA8002101F02CFA3422002159
S31500001F8001A801F027FA01A800F098F9049B012B9B
S31500001F9011D8204600236A1E9D4240F8043B4FEAB2
S31500001FA082024FF0FF0108BF1A4601F013FA002023
S31500001FB022B0BDE8F081AB425DD300F04AFF059B3D
S31500001FC00C220EA9DF68064600F0C1FF0028EFD1FB
S31500001FD0DFF8AC800E9B434515D1109A0EA930460A
S31500001FE000F0B5FF10994FF0FF320EA8FFF736FA52
S31500001FF0224B98422ED0AA00FF21204601F0EAF992
S3150000200040F20650D4E737440C220EA9384600F0B9
S315000020109EFF0028CCD10E9B434507D0AA00FF2186
S31500002020204601F0D7F940F20550C1E70EA9109AF3
S31500002030384600F08CFF059B3046D96800F0BFFF9C
S315000020400028B5D1109A0EA9304600F096FF002858
S31500002050C3D0ADE7109E103EB608AE4228BF2E464E
S31500002060B7003A4611A9204601F0BCF9AA1B920016
S31500002070FF21E01999E740F2045099E7E320BBDE1F
S3150000208039528FE12DE9F0434422A3B00C46814634
S3150000209000210DEB020001F09DF92F4A0123CDE945
S315000020A00E2300213422502601A8109601F092F941
S315000020B001A800F003F9049BA34249D3012B0AD8D7
S315000020C0D9F800300133022B40F2045038BF00200B
S315000020D023B0BDE8F08300F0BCFE059B102C28BFA2
S315000020E01024DF684FEA84080744424649460546FD
S315000020F011A801F077F9C4F110040EAB08F10C0039
S315000021001844A200FF2101F065F94C214FF0FF327F
S315000021100EA8FFF7A3F9059BC0432190D96838465E
S3150000212000F04DFF0028D3D132460EA9384600F004
S3150000213024FF0028CCD1059B2846D96800F03FFF34
S315000021400028C5D132460EA9284600F016FFBFE783
S3150000215040F20450BCE700BF39528FE131B10A4B5F
S315000021605A68824205D80023C1E9003340F2014093
S315000021707047013053F830200A6003EBC00300209B
S315000021805B684B60704700BFB436000070B40C4605
S3150000219011461A460D4B5D68854210D9013003EB96
S315000021A0C005A6186D68AE420DD8A5420BD3954260
S315000021B009D353F83000204470BC00F0C8BE40F28A
S315000021C0014070BC704740F20240FAE7B4360000A6
S315000021D070B586B00DF107030D46029300211C4B26
S315000021E011600446164628461C22CDE903338DF8B5
S315000021F00710059301F0EEF89DF8072032B9D4F8E0
S3150000220078311BB9D4E95C31994219D323789907FF
S3150000221044BF61683160DB0709D504F1080304F1A6
S31500002220240153F8040B45F8040B8B42F9D162B92B
S315000022302378002B40F2064018BF002006B070BD80
S3150000224002A9204600F00CFED6E70020F6E700BF04
S315000022505B2E000070B40C4611461A460D4B5D68A5
S31500002260854210D9013003EBC005A6186D68AE4251
S315000022700DD8A5420BD3954209D353F8300020441C
S3150000228070BC00F07ABE40F2014070BC704740F26C
S315000022900240FAE7B4360000074B5A68824207D973
S315000022A0013003EBC00253F83000516800F087BEDE
S315000022B040F20140704700BFB436000070B50546D5
S315000022C088B0C0B14FF440320023C0E900230B4B65
S315000022D01A785B680272C3606C46684600F04EF876
S315000022E00FCC05F114060FC694E80F0086E80F0020
S315000022F005F114032B6108B070BD00BFB4360000B1
S31500002300002300B5D3F828389B688B42E5B003D389
S31500002310002065B05DF804FB4FF4BE7205A900F01D
S31500002320E5FD0028F4D10223CDE901008DF8153032
S315000023300390034B049301A905A800F0EBFDE8E721
S31500002340E509000000B5E5B04FF4BE7205A900F03E
S31500002350CDFD70B901238DF81530074B0190CDE9FD
S315000023600230049001A905A800F0D4FD65B05DF81F
S3150000237004FB0020FAE700BFAD27000070B5054D4D
S31500002380064604460FCD0FC495E80F0084E80F00FB
S31500002390304670BD94360000024BD86900F001004B
S315000023A0704700BF00000E40044BD3F84421D2070B
S315000023B003D4D3F840211042FBD1704700400E40B1
S315000023C038B5C0F30323013B092B11D8DFE803F02E
S315000023D0052710102B221D101511154DC0F30434BE
S315000023E005F1424505F5801504EBC5008000016046
S315000023F038BD104DC0F30434F2E70F4DC0F304347A
S315000024004FF48030FFF7D0FFEAE7C0F304340B4DFA
S315000024101020F7E7C0F30434094D0120F2E7094D17
S31500002420C0F30434DCE7084DC0F30434D8E700BF3A
S3150000243000400E4050410E40F0400E40E8400E4035
S31500002440E0400E40C0400E40B0400E40094A0A4BE4
S31500002450D969C90705D512B96FF002007047013A6C
S31500002460F6E7002AF8D001221861DA60D86940F34D
S31500002470800070478096980000000E4070B509B93C
S31500002480002070BD0E4A0023082550F823409461B1
S315000024900C4CD5600133D669F60705D514B96FF033
S315000024A00200EEE7013CF6E7002CF8D0D469A40759
S315000024B002D49942E9D1E3E76FF00100E1E700BFFA
S315000024C000000E4080969800224B2DE9F0470D46FD
S315000024D041F671311E6C1964996841F0010181461B
S315000024E0B6B299609708A8464FF0000ABA450ED3CF
S315000024F00020D9F800202B689A420ED04846FFF7F4
S31500002500A5FF50B901212846FFF7B8FF05E009EB02
S315000025108A042046FFF79AFF48B10E4B9A6822F0CC
S3150000252001029A600EB100221A64BDE8F087C4F376
S315000025300A01C1F500618908A7EB0A03994228BF81
S3150000254019464046FFF79AFF0028D2D18A4408EB85
S315000025508108CBE700000E40214B41F671311A6C21
S315000025601964996841F00101996001211861D960E7
S31500002570D969490792B209D5996821F00101996094
S315000025800AB100221A644FF0FF3070470221D96069
S315000025901449D869C00700D569B9D86910F0020096
S315000025A00BD0996821F0010199600AB100221A64E2
S315000025B06FF0010070470139EBE741B9986820F0E8
S315000025C00100986002B119646FF0020070479968C3
S315000025D021F0010199600AB9002070471864FBE7F1
S315000025E000000E40809698002DE9F04F02F16044FD
S315000025F0B4F5F84F03D94FF0FF30BDE8F08FDFF8A0
S31500002600C8C0DFF8C890DFF8C880302606FB00C6D1
S315000026104FF44014C6F880400024C6F88440C6F83B
S315000026208840C6F89840264C41F67135D4F840A04B
S315000026302564A5684FF0010E45F00105A5600EFA68
S3150000264000F053B90422E260A26822F00102A260FF
S315000026501FFA8AF28ABB0020CFE701F500652161E7
S3150000266005EA0905C4F80CE06D1AD4F81CB09D42C1
S3150000267028BF1D461BF0040F4FEA9507BBD1013F4B
S315000026803F0147F06057C6F88C700E4FC6F8902091
S31500002690C6F89470DCF820700743CCF82070102739
S315000026A0E760DCF828703842FBD0C8F828002944D7
S315000026B0C8F820002A445B1BC3E72364CBE700BFAE
S315000026C000000E4018000E4000200E4000F8FFFFEC
S315000026D000200E440D4AD2F8E430D2F8E0109B00F8
S315000026E003F03C03C1F381110B438370D2F8E03051
S315000026F003F03F034370D2F8E830D2F8EC2003F041
S31500002700F003C2F3031213430370704700FF0FE098
S31500002710024BD3F8FC00000E704700BF0081E00FAB
S31500002720024B03480122C3F8042670470010C84331
S3150000273000000F40054B984201BF03F16E7303F58D
S3150000274088330022C3F80426704700BF00000F40FC
S31500002750FEE708B5FEF724F9FEF792FAFEF7FAF857
S31500002760FEF70CF9FEF70EFAC0F30A032DE9F04165
S3150000277005460F4616460BB900F0E2F805F500646B
S3150000278024F4FF6424F0070405EB0608A04507D8E7
S315000027903246394628460223BDE8F04100F0D7B854
S315000027A0204600F0CDF804F50064EFE770B400258C
S315000027B00346D5F828582E69864206D86C69134414
S315000027C09C4202D370BCFFF7CFBF70BC7047036951
S315000027D013F0FE0F0CBF0120002070474FF400409D
S315000027E0704700F0B2BB00F00FBC03461846016804
S315000027F081F3088881F3098840688746FEE74FF42D
S315000028000170FEF7DBBAB1F5BE7F10B504460FD3F3
S315000028104FF4BE72002100F0DDFD04F5827204F172
S31500002820BC0104F128000023BDE8104000F0F9B90E
S3150000283040F2052010BD13B504460091014628302C
S31500002840FEF740FBC4F8780118B141F2070398423D
S3150000285004D1A37823B1E07800F2022002B010BDC3
S3150000286040F20120FAE72DE9F04387B00DF108099F
S315000028700446DDF838800E461746002110224846E9
S315000028801D4600F0A7FD0021C8F800101C222846AE
S3150000289000F0A0FD32463B46CDF80090214604F1FB
S315000028A02800FEF70FFB23789A0744BF6268C8F832
S315000028B00020DB0709D504F1080304F1240253F8CC
S315000028C0041B45F8041B9342F9D12378002B40F2F0
S315000028D0064018BF002007B0BDE8F0834FF4BE7075
S315000028E0704713B504460B461046A20753BF6FEA5E
S315000028F003434FF6FF7242EA03436FEA1343019321
S31500002900042324F003010DEB0302FFF76DFE02B072
S3150000291010BD07B503469B0753BF6FEA01414FF64B
S31500002920FF7343EA01416FEA11410422019120F04D
S3150000293003000DEB020100F061FC03B05DF804FB3F
S3150000294008B5FFF709FEB0FA80F0400908BD072B6D
S315000029502DE9F04105460E4614461F4602D90020D1
S31500002960BDE8F08101214FF48A40FFF729FD0CB93B
S315000029700120F5E744EA0503DA07F0D4AB0726D5CC
S3150000298031883A462846FFF7ACFF0028E7D1023CDB
S31500002990032C05F1020506F102060DD924F0030801
S315000029A04346324629463846FFF71EFE0028D6D152
S315000029B046444544A4EB0804002CD9D031883A4655
S315000029C02846FFF78EFFB0FA80F04009C8E7032CCF
S315000029D0E4D8F3E7F8B505460E4614460AB90120D1
S315000029E0F8BD42EA0003DA0701D50020F8E78307BD
S315000029F021D50988FFF78DFF0028F6D1023C032C6C
S31500002A0005F1020506F102060BD924F003073A4642
S31500002A103146284600F0F2FB0028E6D13E443D440C
S31500002A20E41B002CDBD031882846FFF772FFB0FA92
S31500002A3080F04009D4E7032CE7D8F4E770B5D1E974
S31500002A400152AA4205D290F840302B449B1A402BE3
S31500002A5010D9002012E00A6890F84040D65C90F841
S31500002A604120224402F03F020133013486548B6038
S31500002A7080F840408B689D42EDD8012070BD2DE95D
S31500002A80F84317469E46D1E9012390F840C0089DB9
S31500002A909DF824909DF82880D21A624495420446F7
S31500002AA00E460AD9FFF7CAFF002867D1102384F81B
S31500002AB0463041F20200BDE8F883754555D800233B
S31500002AC094F840200AB19D4235D1D6E901219142C0
S31500002AD001D29D4241D89D424DD1D4F88820294645
S31500002AE03846FEF7BBFCC4F88800B9F1000F04D0E5
S31500002AF0E06C2A46394600F0FBF894F84330B8F10A
S31500002B00000F06D08BB1A06C2B463A46394600F032
S31500002B10D4F894F8433043B1E36DA26D2B4493424D
S31500002B20E36524BF002384F84330636D2B4463655B
S31500002B3041F20300BFE794F84120A25CFA5494F8EE
S31500002B404120013202F03F0284F8412094F84020EF
S31500002B50013A84F840200133B2E73268525CFA54F5
S31500002B60B2680132B2600133AFE741F201001023CF
S31500002B7084F846309FE741F20200F8E700209AE722
S31500002B802DE9F04799465B6804460F469046002BB0
S31500002B9041D011F0030341D1D3F82838006E1B69E8
S31500002BA081181D1DA9421BD31C33984218D2A84276
S31500002BB0024638BF2A46101A3E18C5F168009942E7
S31500002BC094BFC2EB010AC2EB030A104431465246D7
S31500002BD0204400F007FC5246FF21304600F0FAFB85
S31500002BE0226E48F204039A420CD802EB080048F21F
S31500002BF00701884206D99B1AFA58C4F880204FF07C
S31500002C00FF32FA50D9E90035206E42463946A847C8
S31500002C10236E434423660020BDE8F08741F202009C
S31500002C20FAE72DE9F04103F02003002504464FF0B2
S31500002C30FF38C0E918550F461646A0F8405080F8F0
S31500002C404350A0F8445080F8465080F84230C0F80F
S31500002C5088801822FF21683000F0BCFBC4E9127698
S31500002C60C4F88080C4F8848084F8905016B1304649
S31500002C7000F034F80020BDE8F081F8B504461646A9
S31500002C801D460F4600F0BCFADDE90612204600F0AC
S31500002C90BBFA0023636284F838703368C4F83930AD
S31500002CA07368C4F83D30B368C4F841302B0C6DBA74
S31500002CB084F84530A4F84650F8BD30B585B00D46C9
S31500002CC0194600F12803CDE90152009300F12402D0
S31500002CD000F1380300F0B6FA05B030BD10B5044671
S31500002CE000F02BF820460021BDE8104000F029B87E
S31500002CF000F02CB8014600F036B8036853B91C231F
S31500002D0050F8042F0AB9043BFAD1002BCCBF00209F
S31500002D10012070470020704738B5202204460D4632
S31500002D20002100F057FB05F12003601E13F8012D6A
S31500002D3000F8012FAB42F9D138BD6822002100F01E
S31500002D4049BB03460020C3E90000704707B500F100
S31500002D5028030190009300F108030020FEF7C8FF46
S31500002D6003B05DF804FB02460B4600F1280108306B
S31500002D70FFF71CB830B59FB034220021054601A8E4
S31500002D8000F028FB01A8FFF799FA049C012C1ED934
S31500002D9021460EA8FFF7E8F818B140F2055398420D
S31500002DA00ED10EAA002352F8041B481C0AD11EAAF3
S31500002DB002EB830321460EA843F8405CFFF762F955
S31500002DC01FB030BDA94205D001339C42EBD140F281
S31500002DD00250F5E740F20350F2E710B5E0B04FF4C9
S31500002DE0BE7201A9002000F081F840F20124002102
S31500002DF001A800F052F8A042F9D040F2032398420D
S31500002E0003D040F2054060B010BD9DF8043003F0D9
S31500002E100302022AF5D09A0711D500220299D2F8A8
S31500002E202828926891420AD95C98FFF769FA002827
S31500002E30E7D00A994FF40040FDF794FEE1E7DB077F
S31500002E40DFD504995C98FFF77DFA0028D9D00020D9
S31500002E50D9E700207047FFF7C0BF01221A707047FC
S31500002E6030B5A3B004460D4602AAD0F87411D0F8C6
S31500002E706C018023FFF78AF90095802302AA214678
S31500002E8004F12800FEF71EF8D4F87431C4F878016E
S31500002E908033C4F8743123B030BD1FB50023CDE9AB
S31500002EA00033CDE90213D0F87831044693B9D0E95E
S31500002EB05C329A420ED26946FFF7D2FFD4F8780107
S31500002EC070B141F2070240F20123904208BF184652
S31500002ED004B010BDA37833B1E07800F20220F7E722
S31500002EE040F20120F4E740F20220F1E737B50C4644
S31500002EF0054611462046FFF786FC48B9694628462E
S31500002F00FFF72CF920B9019BC4F86C51C4F8703155
S31500002F1003B030BD38B500F5827204460D46202355
S31500002F2000F1BC012830FFF77CFED4F878311BB9DC
S31500002F30D4E95C329A4203D3A07800B1E07838BD78
S31500002F4029462046FFF78CFFEFE700207047B2F5D1
S31500002F50802F10B51346044608460BD8B4F5802FCB
S31500002F6008D82344B3F5802F04D8214600F03AFA56
S31500002F70002010BD40F20240FBE7B2F5802F10B5ED
S31500002F8006D8B0F5802F03D88318B3F5802F0ED955
S31500002F9040F2024010BDC45801340AD104339A42AB
S31500002FA0F9D8FFF717FD0028F2D00020F2E700233A
S31500002FB0F5E740F20340EDE74FF0FF30704738B5D4
S31500002FC041EA0003C3F30A030446D3B9B1F5802FDF
S31500002FD006D8B0F5802F03D80D18B5F5802F02D985
S31500002FE040F2024038BD204604F50064FFF7A8FC15
S31500002FF0AC4202D00028F6D1F2E70028F0D000203B
S31500003000F0E740F20440EDE700207047EFF3108050
S3150000301072B6704700B962B6704784B00B68009309
S315000030204B6801938B680293CB680393009B036004
S31500003030019B0360029B0360039B036000230093D4
S3150000304001930293039304B0704730B5D1E902238C
S31500003050D1E90054056004600260036030BD30B5FC
S315000030600568046802680368C1E90054C1E90223DF
S3150000307030BD7FB58A0704460B4610D06D4601F178
S315000030801006186859682A4603C20833B342154623
S31500003090F7D169462046FFF7D8FF04B070BD00910E
S315000030A0009904B0BDE87040FFF7CFBF30B58B077D
S315000030B085B00C4610D06946FFF7D1FF0D46234672
S315000030C004AC2A4603CAA24218605960154603F1A9
S315000030D00803F6D105B030BD0091009905B0BDE8F2
S315000030E03040FFF7BCBF10B5FFF7AFFFBDE810409B
S315000030F01031FFF7AABF10B5FFF7B1FFBDE81040CA
S315000031001031FFF7ACBF10B5FFF79FFF0C4610312B
S31500003110FFF79BFF04F12001FFF797FF04F1300151
S31500003120BDE81040FFF791BF00F1424303F580135D
S31500003130102A10B54FEA43130AD101221A6000F58E
S315000031408870FFF76AFF1031BDE81040FFF765BFD2
S3150000315000221A602430F7E7F0B50B46990789B0CC
S31500003160044615462DD0082A19D16D4603F11006DE
S31500003170186859682A4603C20833B3421546F7D180
S31500003180082269462046FFF7CFFF03226B46002040
S31500003190013A186003F10403FAD209B0F0BD6E4695
S315000031A003F1200718685968324603C20833BB4248
S315000031B01646F7D12A4669462046FFF7B5FF07228D
S315000031C0E4E70093009909B0BDE8F040FFF7ACBF13
S315000031D0436823F01F030E290BD8DFE801F0080827
S315000031E00808080B0B0B080808080B0B0B00194303
S315000031F041607047194341F01001F9E7FFF764B9E0
S315000032002422002100F0E6B870B515460E462422A9
S315000032100021044600F0DEF8C02D0DD0B5F5807F04
S3150000322001D0802D0BD12046EA0840F8045B3146D8
S3150000323000F0D8F8002070BD6FF07100FBE76FF06A
S315000032401F00F8E72DE9F04F87B08B4602900393F5
S3150000325090467AB11568029B1B68802B0CD100261C
S315000032605E450FD3B8F1000F40F0A180002007B0F3
S31500003270BDE8F08F1546EEE7B3F5807FEFD06FF02F
S315000032802000F4E75DB1119B109A9B5D525D53409F
S31500003290129A0135935505F00F050136E0E7FFF761
S315000032A03FFA4FF44043456003600446FFF7AEFE25
S315000032B0029951F8043B802B074614BF10220822BE
S315000032C02046FFF749FF04F184031846039901934A
S315000032D0FFF7CFFE3846FFF79DFE119BABEB0607C7
S315000032E003EB0609129B27F00F0703EB060A09EB0F
S315000032F007030593059989454FF005034FF003022F
S3150000330019D1119B3744DE19129B1F44119B03EB05
S315000033100B0A032356452AD1FFF778FE0399064682
S315000033200198FFF7C3FE3046FFF774FE2046FFF70D
S3150000333001FA5E4694E74821A160A36021698907E6
S31500003340FCD4A260FFF762FE4946049004F1A00097
S31500003350FFF78FFE514604F18000FFF7A7FE0498A1
S31500003360FFF758FE09F110090AF1100AC2E79DB9E4
S315000033704822A2600522A26022699207FCD4A360BB
S31500003380FFF744FE1099814604F18000FFF78EFE98
S315000033904846FFF73FFE0323109916F8012B495DB7
S315000033A001354A4007F8012B05F00F05B2E7C8F8CA
S315000033B000505BE710B501390244904201D100206C
S315000033C005E0037811F8014FA34201D0181B10BD88
S315000033D00130F2E702440346934200D1704703F8F6
S315000033E0011BF9E70A44914200F1FF3300D170470F
S315000033F010B511F8014B03F8014F9142F9D110BDF8
S31500003400F8B500BFF8BC08BC9E467047F8B500BFCB
S31500003410F8BC08BC9E467047000000000000000093
S315000034200000000000000000000000000000000096
S315000034300000000000000000000000000000000086
S31500003440B814B6F1E0CFF3ADB7DD25C9FA79B713F5
S315000034500000000013B779FAC925DDB7ADF3CFE058
S31500003460F1B614B80102000002000000D8360000D0
S3150000347040000000020004020000000000000000FE
S315000034800000000000000000000000000000000036
S315000034900000000000000000000000000000000026
S315000034A00000000007B0CD5E02000000020004022A
S315000034B0DC2E00000040000000000400F0000100C7
S315000034C0E3270000E7270000890A0000072800001C
S315000034D0372800005036000067280000DD2800006D
S315000034E00000000000000000DD270000EB17A60327
S315000034F00201000003000000FA0606FA0D040000AF
S3150000350003000000F40A0AF40505000001000000AB
S31500003510F50909F50307000001000000F60808F6A2
S315000035200608000000000000FE0101FE0808000079
S3150000353000000000FD0303FD0A0800000000000073
S31500003540F90707F90E09000002000000F70A0AF75A
S315000035500F0B000003000000FC0404FC0B0C000031
S31500003560030000002000000000010000050C000020
S31500003570FFFFFFFFFFFFFFFFFFFFFFFF0000000051
S31500003580000000000000000001000000FFFFFFFF38
S31500003590512563FCC2CAB9F3849E17A7ADFAE6BCEF
S315000035A0FFFFFFFFFFFFFFFF00000000FFFFFFFF21
S315000035B096C298D84539A1F4A033EB2D817D0377C7
S315000035C0F240A463E5E6BCF847422CE1F2D1176B62
S315000035D0F551BF376840B6CBCE5E316B5733CE2B35
S315000035E0169E0F7C4AEBE78E9B7F1AFEE242E34F64
S315000035F08000000000000000000000000000000045
S3150000360000000000000000000000000000000000B4
S3150000361000000000000000000000000000000000A4
S315000036200000000000000000000000000000000094
S315000036306A09E667BB67AE853C6EF372A54FF53A3D
S31500003640510E527F9B05688C1F83D9AB5BE0CD1969
S3150000365000010000BD2200005D2100008D21000058
S31500003660552200009922000085200000691F0000F5
S31500003670752D0000ED2E00009B2E0000D1210000CC
S31500003680992300004F2F00007B2F0000BF2F000062
S31500003690B92F0000100203002800000028000000D7
S315000036A00008000000000400000000000200000006
S315000036B000000040010000000100000000200200A0
S315000036C000500100D0360000081000200200000063
S311000036D031090000090900002E787E3642
S503034FAA
S70500000000FA
